:020000040800F2
:1000000000000220D51D0008011D0008031D000886
:10001000051D0008071D0008091D0008000000005C
:100020000000000000000000000000000B1D0008A0
:100030000D1D0008000000000F1D0008111D000824
:10004000251E0008251E0008251E0008251E000884
:10005000251E0008251E0008251E0008251E000874
:10006000251E0008251E0008251E0008251E000864
:10007000251E0008251E0008251E0008251E000854
:10008000251E0008251E0008251E0008251E000844
:10009000251E0008251E0008251E0008251E000834
:1000A000251E0008251E0008251E0008251E000824
:1000B000251E0008251E0008251E0008251E000814
:1000C000251E0008251E0008251E0008251E000804
:1000D000251E0008251E0008251E0008251E0008F4
:1000E000251E0008251E0008251E0008251E0008E4
:1000F000251E0008251E0008251E0008251E0008D4
:10010000251E0008251E0008251E0008251E0008C3
:10011000251E0008251E0008251E0008251E0008B3
:10012000151D0008251E0008251E0008251E0008B4
:10013000251E00080000000000000000251E000829
:10014000251E0008251E0008251E0008251E000883
:10015000251E0008251E0008251E0008251E000873
:10016000251E0008251E0008251E0008251E000863
:10017000251E0008251E0008251E0008000000009E
:1001800000000000251E0008000000000000000024
:10019000251E00080000000000000000251E0008C9
:1001A000000000000000000000000000251E000804
:1001B000251E0008251E0008251E0008251E000813
:0401C000251E0008F0
:1001D00010B5054C237833B9044B13B10448AFF381
:1001E00000800123237010BD70000020000000007B
:1001F0007C2C000808B5034B1BB103490348AFF33F
:10020000008008BD00000000740000207C2C000865
:1002100001F0FF01102A2BDB10F0070F08D010F8B7
:10022000013B013A8B422DD010F0070F42B3F6D1BB
:10023000F0B441EA012141EA014122F007047FF0D4
:1002400000070023F0E80256083C85EA010586EA2B
:10025000010685FA47F5A3FA87F586FA47F6A5FA67
:1002600087F68EB9EED1F0BC01F0FF0102F0070273
:1002700032B110F8013B013A83EA010313B1F8D11E
:100280000020704701387047002D06BF35460338FF
:10029000073815F0010F07D1013015F4807F02BF38
:1002A000013015F4C03F0130F0BC0138704700BF89
:1002B00053B94AB9002908BF00281CBF4FF0FF31CD
:1002C0004FF0FF3000F07AB9ADF1080C6DE904CEC3
:1002D00000F006F8DDF804E0DDE9022304B0704721
:1002E0002DE9F0478C460D460446089E002B51D15F
:1002F0008A4217466DD9B2FA82FEBEF1000F0BD0CA
:10030000CEF1200C01FA0EF520FA0CFC02FA0EF7E1
:100310004CEA050C00FA0EF44FEA174A250CBCFB18
:10032000FAF81FFA87F90AFB18CC45EA0C4508FBD6
:1003300009F3AB420AD9ED1908F1FF3280F02381AD
:10034000AB4240F22081A8F102083D44ED1AA4B26C
:10035000B5FBFAF00AFB105544EA054400FB09F925
:10036000A14509D9E41900F1FF3380F00A81A145C4
:1003700040F2078102383C44A4EB090440EA0840FB
:100380000021002E61D024FA0EF400233460736043
:10039000BDE8F0878B4207D9002E54D0002186E8B3
:1003A00021000846BDE8F087B3FA83F1002940F048
:1003B0008E80AB4202D3824200F2FA80841A65EB4F
:1003C00003050120AC46002E3FD086E81010BDE8A2
:1003D000F08712B90127B7FBF2F7B7FA87FEBEF133
:1003E000000F34D1EB1B3A0C1FFA87FC0121B3FB41
:1003F000F2F8250C02FB183345EA03450CFB08F321
:10040000AB4207D9ED1908F1FF3002D2AB4200F23E
:10041000D1808046ED1AA3B2B5FBF2F002FB105575
:1004200043EA05440CFB00FCA44507D9E41900F19C
:10043000FF3302D2A44500F2B8801846A4EB0C04A6
:1004400040EA08409DE731463046BDE8F087CEF1EE
:10045000200405FA0EF307FA0EF720FA04F83A0C16
:1004600025FA04F448EA0308B4FBF2F14FEA184510
:1004700002FB11441FFA87FC45EA044501FB0CF31B
:10048000AB4200FA0EF409D9ED1901F1FF3080F00A
:100490008A80AB4240F2878002393D44EB1A1FFA52
:1004A00088F5B3FBF2F002FB103345EA034500FB8D
:1004B0000CF3AB4207D9ED1900F1FF386FD2AB4214
:1004C0006DD902383D44EB1A40EA01418FE7C1F192
:1004D000200722FA07F88B4005FA01F448EA0303E3
:1004E00020FA07FE4FEA134CFD404EEA040EB5FB1E
:1004F000FCF94FEA1E440CFB19551FFA83F844EA35
:10050000054509FB08F4AC4202FA01F200FA01FACF
:1005100008D9ED1809F1FF3043D2AC4241D9A9F115
:1005200002091D442D1B1FFA8EFEB5FBFCF00CFBCF
:1005300010554EEA054400FB08F8A04507D9E41819
:1005400000F1FF3529D2A04527D902381C4440EAE2
:100550000940A4EB0804A0FB02894C45C6464D4661
:1005600015D312D056B1BAEB0E0364EB050404FAAE
:1005700007F7CB401F43CC40376074600021BDE8D3
:10058000F0871846F8E69046E0E6C245EAD2B8EBB6
:10059000020E69EB03050138E4E72846D7E7404639
:1005A00091E78146BEE7014678E702383C4445E7DB
:1005B000084608E7A8F102083D442BE7704700BF52
:1005C00038B50E4A0E4B054618784FF47A73B3FBD4
:1005D000F0F31068B0FBF3F000F0BCFA044658B931
:1005E0000F2D09D8024629464FF0FF3000F070FA6F
:1005F000044B20461D6038BD012038BD0800002096
:10060000000000200400002008B50B4B1A6842F4DB
:1006100000721A601A6842F480621A601A6842F422
:1006200080721A60032000F041FA0020FFF7C8FF33
:1006300001F0BCFA002008BD003C0240034A044B14
:1006400011681B780B441360704700BF98000020AE
:1006500000000020014B1868704700BF9800002080
:1006600038B50446FFF7F6FF631C1CBF054B1B782B
:10067000054618BFE418FFF7EDFF401B8442FAD887
:1006800038BD00BF0000002038B50446002800F047
:100690009B80056C25B901F0A9FA656484F83C508B
:1006A000236CDB0600F18E80236C23F4885323F047
:1006B000020343F002032364444B5A6822F440329D
:1006C0005A605A6861680A435A60236821695A6807
:1006D00022F480725A605A6842EA01225A605A68CB
:1006E000A16822F040725A605A680A435A609A68B8
:1006F000E16822F400629A609A680A439A60344979
:10070000A26A8A4252D0996821F070619960996812
:100710000A439A609A68E16A22F040529A609A68A5
:100720000A439A609A68217E22F002029A609A68CF
:1007300042EA41029A6094F82020002A3ED05A688A
:10074000616A42F400625A605A6822F460425A6058
:100750005A68013942EA41325A60DA6AE16922F4A0
:100760007002DA62DA6A013942EA0152DA629A68A0
:1007700094F8301022F400729A609A6842EA41229A
:100780009A609A68616922F480629A609A6800208F
:1007900042EA81229A606064236C23F0030343F0F1
:1007A00001032364002384F83C3038BD9A6822F0AA
:1007B00070629A609A6822F04052B2E75A6822F456
:1007C0000062C9E70120EDE7012038BD00230140A8
:1007D0000100000F82B00023019390F83C30012B00
:1007E00061D0012380F83C3003689A68D10705D5B1
:1007F0009A68D20714D4002002B070479A682B4937
:1008000042F001029A602A4A1268B2FBF1F202EB4E
:1008100042020192019A002AEAD0019A013AF8E7CD
:10082000026C22F4E06222F0010242F4807202645F
:100830005A68510541BF026C22F4405242F4805282
:100840000264026C12F480521CBF426C22F0060259
:100850004264002280F83C206FF022021A60154AA0
:10086000516811F01F0F14491AD18B4206D001F5BF
:1008700080718B420BD15268D206BCD1986810F0BF
:100880004050B8D19A6842F080429A60B4E70B4970
:100890008B42B0D1526802F01F020F2AEED9AAE7AC
:1008A0008B42A8D1EAE70220A6E700BF40420F0032
:1008B00008000020002301400020014000220140E8
:1008C00003689A6870B5560504460D460BD59B68BB
:1008D000D80508D5236C43F020032364002384F853
:1008E0003C30012070BDFFF7B5FE064623681A684C
:1008F00092070CD56FF012021A60226C42F400725B
:1009000022649A6812F0405F13D0002070BD691C09
:10091000EDD045B9236C43F004032364002384F82D
:100920003C30032070BDFFF795FE801B8542DDD271
:10093000F0E7227E002AE8D1DA6A12F4700F02D0C2
:100940009B685B05E1D4236C23F480732364206CE3
:1009500010F48050D9D1236C43F00103236470BD9F
:100960000368D86C70470000F7B50023019390F836
:100970003C30012B6ED00D6804688A680123092D74
:1009800080F83C30AEB22AD906EB4603E7681E3B3E
:100990004FF0070E0EFA03FE27EA0E07E760E7683E
:1009A00002FA03F33B43E3604A68062A4FEA8203F4
:1009B00025D81344676B591F1F238B4027EA030375
:1009C0006363626B06FA01F111436163324B9C422F
:1009D00034D0002380F83C30184603B0F0BD2769BE
:1009E00005EB45034FF0070E0EFA03FE27EA0E074C
:1009F0002761276902FA03F33B432361D4E70C2AFA
:100A00000ED81344216BA3F123021F23934021EA44
:100A100003032363236B06FA02F21A432263D5E72A
:100A20001344E16A413B1F229A4021EA0202E2623A
:100A3000E26A06FA03F11143E162C7E7122D0BD116
:100A4000164B5A6822F400025A605A6842F4800237
:100A50005A60BEE70220C0E7114B9D4201D0112D24
:100A6000B7D10E4B5A6822F480025A605A6842F499
:100A700000025A600A4B9D42ABD10A4B0A4A1B68DE
:100A8000B3FBF2F20A2353430193019B002BA0D046
:100A9000019B013BF8E700BF00200140002301401B
:100AA000120000100800002040420F00074AD368DF
:100AB00023F4E0631B041B0C43F0BF63000243F408
:100AC000003300F4E0600343D360704700ED00E0C2
:100AD000174B30B5DC68C4F30224C4F10703251DAD
:100AE000042B28BF0423062D4FF0010505FA03F35C
:100AF00003F1FF338CBF033C00241940A14005FAE9
:100B000004F4013C2240002842EA01024FEA0212AA
:100B1000ADBF00F1604000F00F00064B00F56140F2
:100B2000B5BFD2B2D2B21A5480F8002330BD00BF94
:100B300000ED00E014ED00E0002808DB420901238D
:100B400000F01F0003FA00F0014B43F82200704749
:100B500000E100E00138B0F1807F0AD2064B074A7D
:100B60005860F02182F823100020072298601A6054
:100B700070470120704700BF10E000E000ED00E08A
:100B80000368DAB223F47F7323F003031821103AC9
:100B9000B2FBF1F20449032A88BF0433895C836500
:100BA000C165806D704700BF942C000870B5044685
:100BB000FFF750FD0546002C71D0002384F8343037
:100BC0002268022384F83530136823F00103136090
:100BD00021680B68D8073CD40B68324D6268A06965
:100BE0001D40A3681343E2681343226913436269FB
:100BF0001343E26903431343226A1343626A042ADC
:100C000043EA050301BF266BE56A35432B430B60BE
:100C10004B69042A23F0070343EA02030BD1A26ABB
:100C2000E56A13433DB1F8B9012A2DD001D3022A58
:100C300001D1EA012BD44B612046FFF7A1FFE26D01
:100C40003F239340836000200123606584F83530A2
:100C500070BDFFF7FFFC401B0528B9D92023636551
:100C6000032084F8350070BDB0F5005F13D1032A6E
:100C7000E1D801A050F822F08F0C0008330C0008D6
:100C80008F0C0008890C0008B5F1C07FD3D1402338
:100C900063650120E5E7022AF9D9032AC8E70120A4
:100CA00070BD00BF3F8010F0F7B5002301935A4B91
:100CB000856D1F68C36D2E6808229A40164204464F
:100CC0000CD001680868400708D5086820F00400C7
:100CD0000860AA60626D42F00102626501229A40DA
:100CE000164208D021684969090641BFAA60626DB1
:100CF00042F00202626504229A40164208D021683E
:100D00000968880741BFAA60626D42F0040262650B
:100D100010229A40164210D02368196809070CD592
:100D2000AA601A68500335D51B68190301D4236CD7
:100D300000E0A36C0BB120469847E16D20228A4069
:100D4000164238D023681868C60634D5AA6094F8CD
:100D50003520052A1A6825D122F016021A605A6930
:100D600022F080025A61226C0AB9A26C1AB11A6888
:100D700022F008021A603F238B40AB60002384F806
:100D80003430012384F83530236D0BB12046984769
:100D900003B0F0BD1A68D2055EBF1A6822F00802DF
:100DA0001A60C4E7500328D51B68190332D4636C5A
:100DB0000BB120469847636D002BE9D0636DDA07CD
:100DC00019D50523226884F83530136823F0010310
:100DD00013604FF41653B7FBF3F7019B01339F42A7
:100DE000019302D31368DB07F7D4002384F834306F
:100DF000012384F83530E36CC7E71A6812F4807277
:100E000008D1196821F010011960012384F83420F9
:100E100084F83530E36BCBE7080000202DE9F04F74
:100E200085B00B68DFF8A081654ADFF8A0910193D7
:100E300000234FF0010E019C0EFA03FE0EEA040699
:100E4000B64540F0AA804C6824F01007022F16D156
:100E50004FEAD30A00EB8A0A03F0070BDAF82050B6
:100E60004FEA8B0B4FF00F0C0CFA0BFC25EA0C0C25
:100E70000D6905FA0BF545EA0C05CAF820504FEA52
:100E8000430A0325D0F800B005FA0AF5ED4304F053
:100E9000030C0BEA050B0CFA0AFC013F4CEA0B0CA5
:100EA000012FC0F800C011D8876807EA050BCF688A
:100EB00007FA0AFC4CEA0B078760476827EA0E0E20
:100EC000C4F300179F4047EA0E074760C7683D40DC
:100ED0008F6807FA0AF73D43C560E5005DD54FF01E
:100EE000000BCDF80CB0D8F84470364D47F480476D
:100EF000C8F84470D8F8447007F480470397039FFC
:100F000023F0030707F1804707F59C3703F0030C34
:100F1000D7F808A04FEA8C0C4FF00F0E0EFA0CFE1B
:100F2000A8422AEA0E0E3FD005F58065A8423DD0C2
:100F300005F58065A8423BD005F58065A84239D00B
:100F400005F58065A84237D0484537D005F50065DE
:100F5000A84214BF0725062505FA0CF545EA0E053B
:100F6000BD601568F74314F4803F0CBF3D40354326
:100F70001560556814F4003F0CBF3D403543556083
:100F8000956814F4801F0CBF3D4035439560D568CB
:100F9000A40254BF3D403543D5600133102B7FF48C
:100FA00048AF05B0BDE8F08F5D46D5E70125D3E732
:100FB0000225D1E70325CFE70425CDE70525CBE7BB
:100FC000003C014000000240003802400014024092
:100FD0000AB1816170470904FBE700002DE9F04187
:100FE0000D46044610B90120BDE8F081444B1A6853
:100FF00002F00F028A4228D321688F072DD4C80738
:1010000040D43F4B1A6802F00F02954266D3226823
:1010100051076CD4130707D53A4A2169936823F422
:10102000604343EAC103936000F092F8354B364ABF
:101030009B68C3F30313D35CD840344B1860002083
:10104000FFF7BEFA0020BDE8F081CAB21A701B6833
:1010500003F00F039942C6D1CEE72A4B11F0040FDB
:101060001EBF9A6842F4E0529A600E0742BF9A6827
:1010700042F460429A609A68A06822F0F00202434B
:101080009A60BCE762681F4B012A1DD11B6813F4EC
:10109000003FA8D01B4EB36823F003031343B36093
:1010A000FFF7D8FA41F288380746B368626803F060
:1010B0000C03B3EB820FA4D0FFF7CCFAC01B404562
:1010C000F3D90320BDE8F081911E01291B6802D8E5
:1010D00013F0007FDDE713F0020FDAE7EAB21A70CF
:1010E0001B6803F00F039D427FF47DAF8FE7054936
:1010F000E0688B6823F4E05303438B608AE700BF0A
:10110000003C024000380240AF2C000808000020DC
:10111000044B054A9B68C3F38223D35C034A1068DF
:10112000D840704700380240BF2C0008080000205B
:10113000044B054A9B68C3F34233D35C034A1068EF
:10114000D840704700380240BF2C0008080000203B
:10115000204908B58B6803F00C03082B07D00C2B33
:1011600020D01D4A1D48042B18BF104608BD4A68F0
:101170004B68496813F4800314BF18481648C1F33C
:10118000881118BF002302F03F02A1FB0001FFF706
:101190008FF8104B5B68C3F3014301335B00B0FB76
:1011A000F3F008BD4A684B68496813F4800314BF24
:1011B0000A480948C1F3881118BF002302F03F0212
:1011C000A1FB0001FFF774F8024B5B68C3F30273E5
:1011D000E5E700BF003802400024F40000127A0066
:1011E00003682DE9F341DF07044610D423689E0706
:1011F00067D423681A0700F1B28023685B0700F107
:10120000D080A269002A40F0398100201EE0974B6F
:101210009A6802F00C02042A10D09A6802F00C02BC
:10122000082A02D15B685D0208D4904B9A6802F0EC
:101230000C020C2A0DD15A6850020AD58B4B1B6840
:101240009903D3D56368002BD0D1012002B0BDE84B
:10125000F0816268B2F5803F11D11A6842F48032A1
:101260001A60FFF7F7F9814D06462B689A03BDD443
:10127000FFF7F0F9801B6428F7D90320E6E77B4DE0
:10128000B2F5A02F2B6807D143F480232B602B6885
:1012900043F480332B60E4E723F480332B602B6826
:1012A00023F480232B60002ADBD1FFF7D3F9064615
:1012B0002B689B039AD5FFF7CDF9801B6428F7D9DB
:1012C000DBE76A4B9A6812F00C0F10D09A6802F0B4
:1012D0000C02082A02D15B685F0208D5634A936852
:1012E00003F00C030C2B11D153685E020ED45F4B3C
:1012F0001A68950702D5E268012AA6D11A68216901
:1013000022F0F80242EAC1021A6072E7E268584B22
:10131000B2B101221A60FFF79DF9544D06462B68C1
:10132000980707D52B68226923F0F80343EAC20324
:101330002B605EE7FFF78EF9801B0228EFD99CE750
:101340001A60FFF787F9494D06462B6899077FF524
:1013500050AFFFF77FF9801B0228F6D98DE762694D
:10136000444B7AB101221A60FFF774F93F4D0646EB
:101370006B6F9F073FF541AFFFF76CF9801B0228A9
:10138000F6D97AE71A60FFF765F9384D06466B6FB4
:1013900098077FF532AFFFF75DF9801B0228F6D979
:1013A0006BE7324B1A6C12F0805228D101921A6C02
:1013B00042F080521A641B6C03F080530193019B2E
:1013C00001262D4D2B68D9051BD5A368274D012B70
:1013D00027D12B6F43F001032B67FFF73BF9234D18
:1013E000074641F288382B6F9B0739D5002E3FF412
:1013F00008AF1E4A136C23F08053136401E70026E4
:10140000DFE72B6843F480732B60FFF723F907466F
:101410002B68DA05D9D4FFF71DF9C01B0228F7D9CC
:101420002BE7052B04D12B6F43F004032B67D0E788
:101430002A6F22F001022A672A6F22F004022A672B
:10144000002BCAD1FFF706F941F2883807462B6F07
:101450009807CBD5FFF7FEF8C01B4045F7D90CE73E
:10146000FFF7F8F8C01B4045BDD906E70038024039
:1014700000004742800E474200700040234DAB6899
:1014800003F00C03082B3FF4E0AE214E0023022AA8
:1014900033602DD1FFF7DEF807462B68990121D480
:1014A000226AE3691343626A43EA8213E26A43EA07
:1014B0000263226B43EA0273A26A144C5208013A97
:1014C00043EA02436B6001233360FFF7C3F805462C
:1014D00023689A013FF599AEFFF7BCF8401B02283C
:1014E000F6D9CAE6FFF7B6F8C01B0228D5D9C4E67C
:1014F000FFF7B0F804462B689B017FF586AEFFF737
:10150000A9F8001B0228F6D9B7E600BF0038024050
:10151000600047422DE9F0470668C2683369C16937
:1015200023F4405313433361044683680069F2682F
:101530000343606922F41642034322F00C020B437A
:101540001343F3607369A26923F440731343B1F545
:10155000004F73617A4B7CD19E4203D003F58063C8
:101560009E4244D1FFF7E4FD192505FB00F36068B6
:101570004FF064094000B3FBF0F3B3FBF9F34FEA1B
:101580000318FFF7D5FD636868435B00B0FBF3F712
:10159000FFF7CEFD636868435B00B0FBF3F3B3FB7A
:1015A000F9F309FB1373DB003233B3FBF9F35B0090
:1015B00003F4F877FFF7BCFD626868435200B0FBA4
:1015C000F2FAFFF7B5FD636868435B00B0FBF3F325
:1015D000B3FBF9F309FB13A3DB003233B3FBF9F3DD
:1015E00003F0070343443B44B360BDE8F087FFF7D3
:1015F0008FFD192505FB00F360684FF0640940007A
:10160000B3FBF0F3B3FBF9F34FEA0318FFF780FDE8
:10161000636868435B00B0FBF3F7FFF779FD63682D
:1016200068435B00B0FBF3F3B3FBF9F309FB1373FF
:10163000DB003233B3FBF9F35B0003F4F877FFF719
:1016400067FD626868435200B0FBF2FAFFF760FD85
:10165000B9E79E4202D03B4B9E4240D1FFF768FD66
:10166000676819254FF0640905FB00F3BF00B3FB61
:10167000F7F3B3FBF9F31F01FFF75AFD6368684303
:101680009B00B0FBF3F8FFF753FD636868439B00D2
:10169000B0FBF3F3B3FBF9F309FB13831B01323304
:1016A000B3FBF9F303F0F008FFF742FD626868430B
:1016B0009200B0FBF2FAFFF73BFD636868439B00C2
:1016C000B0FBF3F3B3FBF9F309FB13A31B013233B4
:1016D000B3FBF9F303F00F0343EA080383E7FFF7D3
:1016E00017FD676819254FF0640905FB00F3BF007B
:1016F000B3FBF7F3B3FBF9F31F01FFF709FD6368D1
:1017000068439B00B0FBF3F8FFF702FD6368684392
:101710009B00B0FBF3F3B3FBF9F309FB13831B014D
:101720003233B3FBF9F303F0F008FFF7F1FC626822
:1017300068439200B0FBF2FAFFF7EAFCBDE700BF96
:101740000010014000140140F8B504460E4617464B
:101750001D4621680B6836EA030301D10020F8BD5D
:101760006B1CF7D095B92368DA6822F4D072DA607E
:101770005A6922F001025A61202384F8393084F832
:101780003A30002384F838300320F8BDFEF762FFBA
:10179000C01B8542DDD2E6E710B5044640B390F8A1
:1017A000393003F0FF021BB980F8382000F070FADE
:1017B0002268242384F83930D36823F40053D3609B
:1017C0002046FFF7A7FE23681A6922F490421A61A7
:1017D0005A6922F02A025A61DA6842F40052DA6049
:1017E00000202023E06384F8393084F83A3010BDBB
:1017F000012010BD2DE9F0411F4690F83930202B13
:1018000004460D4690464FD100294AD0002A48D0C0
:1018100090F83830012B47D0012380F8383000236E
:10182000C363212380F83930FEF714FFA4F8248025
:101830000646A4F82680E38C9BB26BB93B46324641
:1018400040212046FFF780FFB0B9202384F83930CB
:1018500084F83800BDE8F081E38C013B9BB2E3845F
:10186000A368B3F5805F32463B464FF080012046C7
:101870000ED1FFF769FF10B10320BDE8F0812B887E
:101880002268C3F308035360236943B90235D2E7E2
:10189000FFF75AFF0028EFD123682A785A600135F4
:1018A000C9E70120BDE8F0810220BDE8F081000019
:1018B00013B502A9044601F8040D0A2301220348C6
:1018C000FFF798FF204602B010BD00BF4C0100207A
:1018D00070B50E4615460C46A31B9D4201DC2846FA
:1018E00070BD14F8010BFFF7E3FFF5E730B595B0D5
:1018F0003422002107A800F0C1FA0021142202A816
:1019000000F0BCFA00251C4B00951A6C42F0805286
:101910001A641B6C194A03F080530093009B0195D5
:10192000136823F4404343F48043136013680E9517
:1019300003F440430193019B01230A9310230B936B
:10194000082302240F9307A84823109307940D94AB
:10195000119412941394FFF743FC0F230293214632
:101960004FF4805302A80394049505930695FFF75E
:1019700035FB15B030BD00BF00380240007000409C
:1019800080B58AB0FEF740FEFFF7B0FF14220025B5
:101990007A4C00210DEB020000F070FA0195236BE8
:1019A000774843F004032363236B03F0040301939C
:1019B000019B0295236B43F080032363236B03F0A9
:1019C00080030293029B0395236B43F0010323637F
:1019D000236B03F001030393039B0495236B43F0F4
:1019E00002032363236B03F002032A46049320219E
:1019F000049BFFF7EDFA4FF40053059305A9614BE3
:101A00006148069301260795FFF708FA202305A9E8
:101A10005B480593069607950895FFF7FFF9009533
:101A2000236B43F480032363236B584C03F480033C
:101A30002A46294600933820009B1027FFF748F8D4
:101A40003820FFF779F83A46294605A800F016FA3B
:101A50004F4BA56084E8280020464E4BA3622661C8
:101A6000267684F82050E562E56084F8305066619F
:101A7000E761FEF709FE05A920460595069607953C
:101A8000FEF772FF022305A920460693FEF76CFFBE
:101A9000032305A920460693FEF766FF042305A944
:101AA00020460693FEF760FF052305A9204606930E
:101AB000FEF75AFF062305A920460693FEF754FFBA
:101AC000072305A920460693FEF74EFF082305A924
:101AD00020460693FEF748FF092305A920460693F2
:101AE000FEF742FF0A2305A920460693FEF73CFFB6
:101AF0000B2305A9204606930C26FEF735FF05A902
:101B000020460696FEF730FF0D2305A920460693D2
:101B1000FEF72AFF0E2305A920460693FEF724FFB1
:101B20000F2305A920460693FEF71EFF05A92046B0
:101B30000697FEF719FF1848184A85604FF4E133FD
:101B4000C560056146618561C56180E80C00FFF7ED
:101B500023FE134E134D2046FEF73CFE0A2120467D
:101B6000FEF7AEFE2046FEF7FBFE0146306028463B
:101B700000F08CF93220FEF773FDECE700380240EC
:101B8000000002400000211000080240A0000020D8
:101B9000002001400100000F4C01002000440040E3
:101BA0009C0000209C2C00087047000007B50E4BDD
:101BB000002100915A6C42F480425A645A6C02F43B
:101BC00080420092009A01911A6C42F080521A648D
:101BD0001B6C03F0805301930720019BFEF766FF07
:101BE00003B05DF804FB00BF0038024070B5064644
:101BF00088B01422002103A800F040F93268204B7D
:101C00009A423AD1002503F58C3301955A6C1D4850
:101C10001D4C42F480725A645A6C02F48072019234
:101C2000019A02951A6B42F001021A631B6B03F0D2
:101C300001030293029B0123039303A9032304934B
:101C4000FFF7ECF8114BA56084E828004FF480639F
:101C500023614FF4805363614FF48043A3612046B6
:101C60004FF48073E560E36125626562FEF79EFFD5
:101C700008B1FFF799FFB463A66308B070BD00BF59
:101C80000020014000000240EC00002010640240EF
:101C900010B5044688B01422002103A800F0EEF825
:101CA0002268154B9A4224D103F5FA3300210191A1
:101CB0001A6C124842F400321A641A6C02F40032B0
:101CC0000192019A02911A6B42F001021A631B6B96
:101CD00003F001030293029B0C230393022304935A
:101CE000012305930323069303A907230793FFF713
:101CF00095F808B010BD00BF00440040000002404D
:101D00007047FEE7FEE7FEE7FEE770477047704763
:101D1000FEF794BC0148FEF7C7BF00BFEC000020EF
:101D200070B50E4615460C46A31B9D4201DC2846A5
:101D300070BDAFF3008004F8010BF5E708B50A4B5E
:101D40001968024609B909491960186869460244C8
:101D50008A4206D900F068F80C2303604FF0FF3088
:101D600008BD1A6008BD00BF8C0000209001002053
:101D70004FF0FF3070474FF400534B600020704726
:101D800001207047002070470F49D1F8883043F494
:101D90007003C1F888300D4B1A68002042F0010230
:101DA0001A6098601A6822F0847222F480321A60F5
:101DB000074A5A601A6822F480221A60D8604FF0ED
:101DC00000638B60704700BF00ED00E00038024008
:101DD00010300024DFF834D0002103E00C4B5B58B6
:101DE000435004310B480C4B42189A42F6D30B4A2D
:101DF00002E0002342F8043B094B9A42F9D3FFF773
:101E0000C3FF00F017F8FFF7BBFD7047000002208A
:101E1000702D0008000000207000002070000020DD
:101E200090010020FEE70000014B1868704700BFDA
:101E30000C00002070B50D4E0D4CA41BA410002505
:101E4000A54209D10B4E0C4C00F018FFA41BA410A6
:101E50000025A54205D170BD56F8253098470135BB
:101E6000EEE756F8253098470135F2E7682D00086F
:101E7000682D0008682D00086C2D000802440346F8
:101E8000934200D1704703F8011BF9E70FB40A4BE6
:101E900013B51C6824B1A36913B9204600F04EF8AD
:101EA00005AB049AA1680193204600F059F902B0ED
:101EB000BDE8104004B070470C000020014900F05C
:101EC000A9B800BF352A0008002310B504460360F6
:101ED0004360836081814366C281036143618361A2
:101EE000194608225C30FFF7C9FF054B6362054BBA
:101EF000A362054BE362054B2462236310BD00BF60
:101F0000D9260008FB2600083327000857270008B9
:101F100070B54A1E682555430E4605F1740100F060
:101F200097F8044640B1002180E842000C30A060E0
:101F300005F16802FFF7A2FF204670BD836910B566
:101F4000044633BB8364C3640365124B124A1B68A7
:101F50008262984204BF0123836100F01FF8606031
:101F6000204600F01BF8A060204600F017F8002281
:101F7000E06004216068FFF7A7FF01220921A06843
:101F8000FFF7A2FF02221221E068FFF79DFF012365
:101F9000A36110BDC82C0008BD1E0008F8B51C4B7D
:101FA0001E68B369074613B93046FFF7C7FF4836C6
:101FB000B4687368013B03D5336833B13668F7E71B
:101FC000B4F90C506DB16834F4E704213846FFF7DA
:101FD0009FFF30600028F1D10C233B60044620466F
:101FE000F8BD4FF6FF73E3810123A3816566256089
:101FF000A560656025616561A5610822294604F137
:102000005C00FFF73BFF6563A563A564E564E6E755
:10201000C82C00082DE9F8438046894600F14804A1
:10202000002614B93046BDE8F883A5686768013F0B
:1020300001D52468F5E7AB89012B07D9B5F90E3036
:10204000013303D029464046C84706436835EEE7CA
:1020500070B5CD1C25F0030508350C2D38BF0C25B7
:10206000002D064601DBA94203D90C233360002072
:1020700070BD00F07FFD234A1468214691B9224CBF
:1020800023681BB9304600F017FB20602946304614
:1020900000F012FB431C26D10C233360304600F0C5
:1020A0006AFDE4E70B685B1B1AD40B2B0FD90B609E
:1020B000CD50CC18304600F05EFD04F10B00231D1E
:1020C00020F00700C31A1BD05A42E25070BD8C4268
:1020D0000DBF63684B686360136018BF0C46E9E787
:1020E0000C464968CAE7C41C24F00304A04205D08A
:1020F000211A304600F0E0FA0130CDD02560D9E752
:1021000070BD00BF90000020940000209368013B48
:10211000002B10B4936009DA9469A34202DBCBB2BE
:102120000A2B03D15DF8044B00F01ABB1368581C4E
:1021300010601970C8B25DF8044B7047F8B50646D8
:102140000F461446D518AC4201D1002007E03A46AC
:1021500014F8011B3046FFF7D9FF431CF3D1F8BD3B
:102160002DE9F04F9DB00C4617460393064618B173
:1021700083690BB9FFF7E2FE7C4B9C4257D1746830
:10218000A38918075DD52369002B5AD00023099332
:1021900020238DF8293030238DF82A304FF0010BA1
:1021A000B846454615F8013B002B55D1B8EB070A58
:1021B0000BD053463A4621463046FFF7BFFF013069
:1021C00000F0C480099B5344099398F80030002B19
:1021D00000F0BC8000234FF0FF3204930793059278
:1021E00006938DF853301A93052229786048FEF73C
:1021F0000FF805F10108049B002831D1D90644BF2E
:1022000020228DF853201A0744BF2B228DF853202B
:102210002A782A2A2CD0079A00210A20A8460135BC
:1022200098F80030303B092B6DD971B326E0514B43
:102230009C4201D1B468A3E74F4B9C4208BFF468AD
:102240009EE72146304600F0EFFA00289ED04FF07E
:10225000FF301DB0BDE8F08F252BA7D0A846A0E722
:10226000434A801A0BFA00F0184304904546BBE736
:10227000039A111D12680391002A01DB079204E002
:10228000524243F002030792049398F800302E2B39
:1022900010D198F801302A2B08F1010137D1039BA6
:1022A0001A1D1B680392002BB8BF4FF0FF3308F1D3
:1022B00002080593314D98F8001003222846FDF7D7
:1022C000A7FF40B14023401B03FA00F0049B0343E7
:1022D000049308F1010898F8001029488DF8281097
:1022E000062208F10107FDF793FF002834D0254BA3
:1022F00003BB039B073323F0070308330393099BB6
:102300004B4409934CE700FB0232012186E700238E
:10231000059318460A258846013198F80020303A7E
:10232000092A03D9002BC5D00590C3E705FB00207F
:102330000123F0E703AB00932246134B04A9304678
:10234000AFF30080B0F1FF3F8146D8D1A3895B068F
:102350003FF57DAF09987CE703AB009322460A4B1B
:1023600004A9304600F088F8ECE700BFEC2C000828
:102370002C2D00080C2D0008CC2C0008322D000854
:10238000362D0008000000003D2100082DE9F0472F
:1023900091461F468A680B69DDF820809342B8BFDA
:1023A0001346C9F8003091F8432006460C4612B196
:1023B0000133C9F800302368990642BFD9F80030CC
:1023C0000233C9F80030256815F0060507D104F17D
:1023D000190AE368D9F800209B1A9D4229DB94F87A
:1023E00043302268003318BF012392062ED404F133
:1023F000430239463046C047013021D02368E568A2
:10240000D9F8002003F00603042B08BFAD1AA36817
:1024100022690CBF25EAE57500259342C4BF9B1ACB
:10242000ED184FF000091A344D451BD10020BDE8CE
:10243000F0870123524639463046C047013003D168
:102440004FF0FF30BDE8F0870135C2E7E1185A1CB4
:10245000302081F84300224494F8451082F843105C
:102460000233C4E70123224639463046C0470130D3
:10247000E6D009F10109D7E72DE9F04317460A7EB6
:1024800085B06E2A984606460C460C9B01F1430E19
:1024900000F0BC801AD8632A2ED00AD8002A00F097
:1024A000C880582A00F08A8004F1420584F842204E
:1024B0002AE0642A01D0692AF6D121681A6811F04D
:1024C000800F23D0111D1960136827E0732A00F0D4
:1024D000B48008D86F2A2AD0702AE5D10A6842F061
:1024E00020020A6003E0752A21D0782ADCD1782204
:1024F00084F845206E4964E01A6801F14205111D17
:102500001960136884F842300123A3E011F0400FF2
:1025100002F104011960D7D0B2F90030002B03DAC0
:102520002D225B4284F8432062490A2217E020688A
:10253000196810F0800F03D0081D18600B6806E0C2
:1025400010F0400F01F104001860F7D00B885949D2
:102550006F2A14BF0A220822002084F8430065680D
:10256000A560002DC0F29C80206820F0040020604F
:10257000002B3FD1002D40F095807546082A0BD1E5
:102580002368DA0708D5236962689A42DEBF3023E0
:1025900005F8013C05F1FF35AEEB05032361CDF8ED
:1025A00000803B4603AA21463046FFF7EFFE01308C
:1025B00055D14FF0FF3005B0BDE8F08381F84520DC
:1025C0003C492268186812F0800F00F104051D6074
:1025D00001D0036802E05506FBD50388D00744BF4D
:1025E00042F0200222601BB9226822F02002226001
:1025F0001022B1E77546B3FBF2F002FB1033CB5C5F
:1026000005F8013D03460028F5D1B7E708681A68C8
:10261000496910F0800F04D0101D1860136819600C
:1026200007E010F0400F02F1040018601368F6D0C4
:102630001980002323617546B1E71A68111D1960DE
:102640001568626800212846FDF7E2FD08B1401BCD
:10265000606063682361002384F843309FE7236947
:102660002A4639463046C0470130A2D023689B072E
:1026700007D5002504F11909E368039A9B1A9D42C6
:1026800005DBE068039B9842B8BF184693E7012337
:102690004A4639463046C04701308AD00135EBE71B
:1026A000002BA7D10B7884F8423004F1420565E78E
:1026B0004E2D00083D2D000838B5064C0023054678
:1026C00008462360FFF73AFB431C02D1236803B19D
:1026D0002B6038BD8C01002010B50C46B1F90E10EE
:1026E00000F098FA0028ABBF636DA3891B1823F490
:1026F0008053ACBF6365A38110BD2DE9F0411F4637
:102700008B89DB0505460C46164605D502230022BB
:10271000B1F90E1000F0B8F9A389B4F90E1023F442
:102720008053A38132463B462846BDE8F04100F085
:1027300069B810B50C46B1F90E1000F0A5F9431CAC
:10274000A38915BF606523F4805343F48053A381AC
:1027500018BFA38110BDB1F90E1000F0D3B800006E
:10276000F8B50E461446054618B183690BB9FFF754
:10277000E5FB214B9C422AD16C68A369A360A38925
:102780001A072ED5236963B323692068C01A6369C9
:10279000F6B29842374604DB2146284600F04AF953
:1027A00028BBA368013BA36023685A1C22601E70EB
:1027B00063690130984204D0A389DB0719D50A2E3A
:1027C00017D12146284600F035F990B10FE00B4BA8
:1027D0009C4201D1AC68D0E7094B9C4208BFEC6831
:1027E000CBE72146284600F01FF80028CCD04FF058
:1027F000FF373846F8BD00BFEC2C00080C2D000850
:10280000CC2C000838B5074C054608461146002276
:1028100022601A46FFF75CF8431C02D1236803B11B
:102820002B6038BD8C010020324B70B51D68064608
:102830000C4625B1AB6913B92846FFF77FFB2E4B39
:102840009C420FD16C68B4F90C309AB215072CD4A5
:10285000D00611D40922326043F04003A3814FF027
:10286000FF3070BD254B9C4201D1AC68EBE7244B97
:102870009C4208BFEC68E6E7510712D5616B41B195
:1028800004F14403994202D0304600F075F9002368
:102890006363A38923F02403A38100236360236976
:1028A0002360A38943F00803A38123694BB9A3895B
:1028B00003F42073B3F5007F03D02146304600F0C7
:1028C00019F9A28912F001030CD00023A3606369F7
:1028D0005B42A361236953B9B4F90C3013F0800053
:1028E000BAD170BD920758BF6369A360F2E70020B8
:1028F000F7E700BF0C000020EC2C00080C2D0008AE
:10290000CC2C000838B5064C002305460846236049
:10291000FFF72EFA431C02D1236803B12B6038BDA8
:102920008C0100208A892DE9F041054610070C46EC
:102930005AD44B68002B05DC0B6C002B02DC00200A
:10294000BDE8F081E66A002EF9D0002312F480522F
:102950002F682B6033D0606DA3895A0705D5636853
:10296000C01A636B0BB1236CC01A00230246E66ADF
:10297000216A2846B047431CA38906D129681D292E
:102980004BD82B4ACA40D60747D500226260D904EB
:102990002269226004D5421C01D12B6803B960650D
:1029A000616B2F600029CAD004F14403994202D020
:1029B000284600F0E1F800206063BDE8F081216A5C
:1029C00001232846B047411CC6D12B68002BC3D039
:1029D0001D2B01D0162B01D12F60B0E7A38943F046
:1029E0004003A381BDE8F0810F69002FA7D09307B2
:1029F0000E6808BF4B690F6018BF0023A6EB0708DD
:102A00008B60B8F1000F9ADD43463A46216AA66A08
:102A10002846B047002807DCA38943F04003A38180
:102A20004FF0FF30BDE8F0810744A8EB0008E8E76D
:102A30000100402038B50B6905460C46DBB118B1E2
:102A400083690BB9FFF77AFA0C4B9C4209D16C6889
:102A5000B4F90C307BB121462846BDE83840FFF779
:102A600061BF074B9C4201D1AC68F1E7054B9C422A
:102A700008BFEC68ECE7002038BD00BFEC2C000874
:102A80000C2D0008CC2C000838B5074C054608462C
:102A90001146002222601A46FFF774F9431C02D146
:102AA000236803B12B6038BD8C01002070B50E4641
:102AB000B1F90E10002990B014461D4607DA002324
:102AC0002B60B3891A0610D44FF480630EE001AA7C
:102AD00000F0B2F80028F2DB029A02F47042A2F58C
:102AE00000535A425A412A60EEE7402300202360F7
:102AF00010B070BD8B8973B59D0706460C4607D58F
:102B000004F14703236023610123636102B070BDB8
:102B100001AB6A46FFF7CAFF009905463046FFF74A
:102B200097FA48B9B4F90C309A05EFD423F00303AF
:102B300043F00203A381E3E70D4BB362A389206056
:102B400043F08003A381009B6361019B20615BB123
:102B5000B4F90E10304600F081F828B1A38923F0B3
:102B6000030343F00103A381A3891D43A581CDE79E
:102B7000BD1E00087047704738B50546002945D08E
:102B800051F8043C0C1F002BB8BFE418FFF7F2FF0C
:102B90001F4A1368104633B9636014602846BDE8C5
:102BA0003840FFF7E8BFA3420CD92168621893426E
:102BB00004BF1A685B68636004BF52182260046037
:102BC000ECE713465A680AB1A242FAD919685818B4
:102BD000A0420BD120680144581882421960DDD10F
:102BE000106852685A6001441960D7E702D90C2373
:102BF0002B60D3E7206821188A4204BF116852680D
:102C0000626004BF091821605C60C7E738BD00BF7F
:102C10009000002038B5074C0546084611460022B2
:102C200022601A46FFF77CF8431C02D1236803B1E7
:102C30002B6038BD8C01002038B5074C00230546B9
:102C4000084611462360FFF796F8431C02D123681B
:102C500003B12B6038BD00BF8C01002038B5064C95
:102C60000023054608462360FFF78AF8431C02D17B
:102C7000236803B12B6038BD8C010020F8B500BF7C
:102C8000F8BC08BC9E467047F8B500BFF8BC08BC4D
:042C90009E467047A5
:102C940000061016000610164144435F56616C7519
:102CA40065203D3D202564200A0D00000000000041
:102CB40000000001020304060708090000000001E7
:102CC40002030400100000200000000000000000C7
:102CD40000000000000000000000000000000000F0
:102CE40000000000000000000000000000000000E0
:102CF40000000000000000000000000000000000D0
:102D040000000000000000000000000000000000BF
:102D140000000000000000000000000000000000AF
:102D24000000000000000000232D302B2000686C00
:102D34004C006566674546470030313233343536DA
:102D44003738394142434445460030313233343513
:0C2D540036373839616263646566000040
:082D600080D5FF7F0100000097
:042D6800F501000869
:042D6C00D101000889
:102D700001000000100000000024F40010000020FA
:102D800000000000EC2C00080C2D0008CC2C0008E2
:102D90000000000000000000000000000000000033
:102DA0000000000000000000000000000000000023
:102DB0000000000000000000000000000000000013
:102DC0000000000000000000000000000000000003
:102DD00000000000000000000000000000000000F3
:0400000508001DD5FD
:00000001FF
